{
  "_format": "hh-sol-artifact-1",
  "contractName": "VotingSystem",
  "sourceName": "contracts/voterSystem.sol",
  "abi": [
    {
      "inputs": [],
      "name": "getWinnerParty",
      "outputs": [
        {
          "internalType": "string",
          "name": "",
          "type": "string"
        }
      ],
      "stateMutability": "view",
      "type": "function"
    },
    {
      "inputs": [],
      "name": "participants",
      "outputs": [
        {
          "internalType": "string[]",
          "name": "",
          "type": "string[]"
        }
      ],
      "stateMutability": "view",
      "type": "function"
    },
    {
      "inputs": [
        {
          "internalType": "string",
          "name": "_name",
          "type": "string"
        }
      ],
      "name": "partyRegister",
      "outputs": [],
      "stateMutability": "nonpayable",
      "type": "function"
    },
    {
      "inputs": [
        {
          "internalType": "uint256",
          "name": "partyIndex",
          "type": "uint256"
        }
      ],
      "name": "voteForParty",
      "outputs": [],
      "stateMutability": "nonpayable",
      "type": "function"
    }
  ],
  "bytecode": "0x6080604052600160025534801561001557600080fd5b50610d32806100256000396000f3fe608060405234801561001057600080fd5b506004361061004c5760003560e01c806312d4378d146100515780633414971c1461006f5780636c4470fb1461008b578063779d70fd146100a9575b600080fd5b6100596100c5565b604051610066919061058a565b60405180910390f35b610089600480360381019061008491906106f5565b6101c8565b005b6100936102ca565b6040516100a0919061084a565b60405180910390f35b6100c360048036038101906100be91906108a2565b6103a3565b005b6060600060606000600190505b6002548110156101bf57826000808381526020019081526020016000206002015411156101b2576000808281526020019081526020016000206002015492506000808281526020019081526020016000206001018054610131906108fe565b80601f016020809104026020016040519081016040528092919081815260200182805461015d906108fe565b80156101aa5780601f1061017f576101008083540402835291602001916101aa565b820191906000526020600020905b81548152906001019060200180831161018d57829003601f168201915b505050505091505b80806001019150506100d2565b50809250505090565b600060405180606001604052803373ffffffffffffffffffffffffffffffffffffffff16815260200183815260200182815250600080600254815260200190815260200160002060008201518160000160006101000a81548173ffffffffffffffffffffffffffffffffffffffff021916908373ffffffffffffffffffffffffffffffffffffffff160217905550602082015181600101908161026b9190610adb565b50604082015181600201559050506001829080600181540180825580915050600190039060005260206000200160009091909190915090816102ad9190610adb565b50600260008154809291906102c190610bdc565b91905055505050565b60606001805480602002602001604051908101604052809291908181526020016000905b8282101561039a57838290600052602060002001805461030d906108fe565b80601f0160208091040260200160405190810160405280929190818152602001828054610339906108fe565b80156103865780601f1061035b57610100808354040283529160200191610386565b820191906000526020600020905b81548152906001019060200180831161036957829003601f168201915b5050505050815260200190600101906102ee565b50505050905090565b600360003373ffffffffffffffffffffffffffffffffffffffff1673ffffffffffffffffffffffffffffffffffffffff16815260200190815260200160002060009054906101000a900460ff1615610430576040517f08c379a000000000000000000000000000000000000000000000000000000000815260040161042790610c70565b60405180910390fd5b6002548110610474576040517f08c379a000000000000000000000000000000000000000000000000000000000815260040161046b90610cdc565b60405180910390fd5b6001600360003373ffffffffffffffffffffffffffffffffffffffff1673ffffffffffffffffffffffffffffffffffffffff16815260200190815260200160002060006101000a81548160ff02191690831515021790555060008082815260200190815260200160002060020160008154809291906104f290610bdc565b919050555050565b600081519050919050565b600082825260208201905092915050565b60005b83811015610534578082015181840152602081019050610519565b60008484015250505050565b6000601f19601f8301169050919050565b600061055c826104fa565b6105668185610505565b9350610576818560208601610516565b61057f81610540565b840191505092915050565b600060208201905081810360008301526105a48184610551565b905092915050565b6000604051905090565b600080fd5b600080fd5b600080fd5b600080fd5b7f4e487b7100000000000000000000000000000000000000000000000000000000600052604160045260246000fd5b61060282610540565b810181811067ffffffffffffffff82111715610621576106206105ca565b5b80604052505050565b60006106346105ac565b905061064082826105f9565b919050565b600067ffffffffffffffff8211156106605761065f6105ca565b5b61066982610540565b9050602081019050919050565b82818337600083830152505050565b600061069861069384610645565b61062a565b9050828152602081018484840111156106b4576106b36105c5565b5b6106bf848285610676565b509392505050565b600082601f8301126106dc576106db6105c0565b5b81356106ec848260208601610685565b91505092915050565b60006020828403121561070b5761070a6105b6565b5b600082013567ffffffffffffffff811115610729576107286105bb565b5b610735848285016106c7565b91505092915050565b600081519050919050565b600082825260208201905092915050565b6000819050602082019050919050565b600082825260208201905092915050565b6000610786826104fa565b610790818561076a565b93506107a0818560208601610516565b6107a981610540565b840191505092915050565b60006107c0838361077b565b905092915050565b6000602082019050919050565b60006107e08261073e565b6107ea8185610749565b9350836020820285016107fc8561075a565b8060005b85811015610838578484038952815161081985826107b4565b9450610824836107c8565b925060208a01995050600181019050610800565b50829750879550505050505092915050565b6000602082019050818103600083015261086481846107d5565b905092915050565b6000819050919050565b61087f8161086c565b811461088a57600080fd5b50565b60008135905061089c81610876565b92915050565b6000602082840312156108b8576108b76105b6565b5b60006108c68482850161088d565b91505092915050565b7f4e487b7100000000000000000000000000000000000000000000000000000000600052602260045260246000fd5b6000600282049050600182168061091657607f821691505b602082108103610929576109286108cf565b5b50919050565b60008190508160005260206000209050919050565b60006020601f8301049050919050565b600082821b905092915050565b6000600883026109917fffffffffffffffffffffffffffffffffffffffffffffffffffffffffffffffff82610954565b61099b8683610954565b95508019841693508086168417925050509392505050565b6000819050919050565b60006109d86109d36109ce8461086c565b6109b3565b61086c565b9050919050565b6000819050919050565b6109f2836109bd565b610a066109fe826109df565b848454610961565b825550505050565b600090565b610a1b610a0e565b610a268184846109e9565b505050565b5b81811015610a4a57610a3f600082610a13565b600181019050610a2c565b5050565b601f821115610a8f57610a608161092f565b610a6984610944565b81016020851015610a78578190505b610a8c610a8485610944565b830182610a2b565b50505b505050565b600082821c905092915050565b6000610ab260001984600802610a94565b1980831691505092915050565b6000610acb8383610aa1565b9150826002028217905092915050565b610ae4826104fa565b67ffffffffffffffff811115610afd57610afc6105ca565b5b610b0782546108fe565b610b12828285610a4e565b600060209050601f831160018114610b455760008415610b33578287015190505b610b3d8582610abf565b865550610ba5565b601f198416610b538661092f565b60005b82811015610b7b57848901518255600182019150602085019450602081019050610b56565b86831015610b985784890151610b94601f891682610aa1565b8355505b6001600288020188555050505b505050505050565b7f4e487b7100000000000000000000000000000000000000000000000000000000600052601160045260246000fd5b6000610be78261086c565b91507fffffffffffffffffffffffffffffffffffffffffffffffffffffffffffffffff8203610c1957610c18610bad565b5b600182019050919050565b7f596f75206861766520616c726561647920766f74656400000000000000000000600082015250565b6000610c5a601683610505565b9150610c6582610c24565b602082019050919050565b60006020820190508181036000830152610c8981610c4d565b9050919050565b7f496e76616c696420706172747920696e64657800000000000000000000000000600082015250565b6000610cc6601383610505565b9150610cd182610c90565b602082019050919050565b60006020820190508181036000830152610cf581610cb9565b905091905056fea26469706673582212207b262606bbd1d67108c94ae659a10e272d42c641b8d44d246739461ddefc2e6764736f6c63430008180033",
  "linkReferences": {},
  "deployedLinkReferences": {}
}